{
  "contractName": "ViridianPass",
  "abi": [
    {
      "inputs": [
        {
          "internalType": "string",
          "name": "_defaultURI",
          "type": "string"
        },
        {
          "internalType": "address",
          "name": "_forwarder",
          "type": "address"
        }
      ],
      "stateMutability": "nonpayable",
      "type": "constructor"
    },
    {
      "anonymous": false,
      "inputs": [
        {
          "indexed": true,
          "internalType": "address",
          "name": "owner",
          "type": "address"
        },
        {
          "indexed": true,
          "internalType": "address",
          "name": "approved",
          "type": "address"
        },
        {
          "indexed": true,
          "internalType": "uint256",
          "name": "tokenId",
          "type": "uint256"
        }
      ],
      "name": "Approval",
      "type": "event"
    },
    {
      "anonymous": false,
      "inputs": [
        {
          "indexed": true,
          "internalType": "address",
          "name": "owner",
          "type": "address"
        },
        {
          "indexed": true,
          "internalType": "address",
          "name": "operator",
          "type": "address"
        },
        {
          "indexed": false,
          "internalType": "bool",
          "name": "approved",
          "type": "bool"
        }
      ],
      "name": "ApprovalForAll",
      "type": "event"
    },
    {
      "anonymous": false,
      "inputs": [
        {
          "indexed": true,
          "internalType": "address",
          "name": "previousOwner",
          "type": "address"
        },
        {
          "indexed": true,
          "internalType": "address",
          "name": "newOwner",
          "type": "address"
        }
      ],
      "name": "OwnershipTransferred",
      "type": "event"
    },
    {
      "anonymous": false,
      "inputs": [
        {
          "indexed": true,
          "internalType": "address",
          "name": "from",
          "type": "address"
        },
        {
          "indexed": true,
          "internalType": "address",
          "name": "to",
          "type": "address"
        },
        {
          "indexed": true,
          "internalType": "uint256",
          "name": "tokenId",
          "type": "uint256"
        }
      ],
      "name": "Transfer",
      "type": "event"
    },
    {
      "inputs": [
        {
          "internalType": "address",
          "name": "to",
          "type": "address"
        },
        {
          "internalType": "uint256",
          "name": "tokenId",
          "type": "uint256"
        }
      ],
      "name": "approve",
      "outputs": [],
      "stateMutability": "nonpayable",
      "type": "function"
    },
    {
      "inputs": [
        {
          "internalType": "address",
          "name": "owner",
          "type": "address"
        }
      ],
      "name": "balanceOf",
      "outputs": [
        {
          "internalType": "uint256",
          "name": "",
          "type": "uint256"
        }
      ],
      "stateMutability": "view",
      "type": "function",
      "constant": true
    },
    {
      "inputs": [
        {
          "internalType": "uint256",
          "name": "tokenId",
          "type": "uint256"
        }
      ],
      "name": "getApproved",
      "outputs": [
        {
          "internalType": "address",
          "name": "",
          "type": "address"
        }
      ],
      "stateMutability": "view",
      "type": "function",
      "constant": true
    },
    {
      "inputs": [
        {
          "internalType": "address",
          "name": "owner",
          "type": "address"
        },
        {
          "internalType": "address",
          "name": "operator",
          "type": "address"
        }
      ],
      "name": "isApprovedForAll",
      "outputs": [
        {
          "internalType": "bool",
          "name": "",
          "type": "bool"
        }
      ],
      "stateMutability": "view",
      "type": "function",
      "constant": true
    },
    {
      "inputs": [
        {
          "internalType": "address",
          "name": "forwarder",
          "type": "address"
        }
      ],
      "name": "isTrustedForwarder",
      "outputs": [
        {
          "internalType": "bool",
          "name": "",
          "type": "bool"
        }
      ],
      "stateMutability": "view",
      "type": "function",
      "constant": true
    },
    {
      "inputs": [],
      "name": "name",
      "outputs": [
        {
          "internalType": "string",
          "name": "",
          "type": "string"
        }
      ],
      "stateMutability": "view",
      "type": "function",
      "constant": true
    },
    {
      "inputs": [],
      "name": "owner",
      "outputs": [
        {
          "internalType": "address",
          "name": "",
          "type": "address"
        }
      ],
      "stateMutability": "view",
      "type": "function",
      "constant": true
    },
    {
      "inputs": [
        {
          "internalType": "uint256",
          "name": "tokenId",
          "type": "uint256"
        }
      ],
      "name": "ownerOf",
      "outputs": [
        {
          "internalType": "address",
          "name": "",
          "type": "address"
        }
      ],
      "stateMutability": "view",
      "type": "function",
      "constant": true
    },
    {
      "inputs": [],
      "name": "renounceOwnership",
      "outputs": [],
      "stateMutability": "nonpayable",
      "type": "function"
    },
    {
      "inputs": [
        {
          "internalType": "address",
          "name": "from",
          "type": "address"
        },
        {
          "internalType": "address",
          "name": "to",
          "type": "address"
        },
        {
          "internalType": "uint256",
          "name": "tokenId",
          "type": "uint256"
        }
      ],
      "name": "safeTransferFrom",
      "outputs": [],
      "stateMutability": "nonpayable",
      "type": "function"
    },
    {
      "inputs": [
        {
          "internalType": "address",
          "name": "from",
          "type": "address"
        },
        {
          "internalType": "address",
          "name": "to",
          "type": "address"
        },
        {
          "internalType": "uint256",
          "name": "tokenId",
          "type": "uint256"
        },
        {
          "internalType": "bytes",
          "name": "_data",
          "type": "bytes"
        }
      ],
      "name": "safeTransferFrom",
      "outputs": [],
      "stateMutability": "nonpayable",
      "type": "function"
    },
    {
      "inputs": [
        {
          "internalType": "address",
          "name": "operator",
          "type": "address"
        },
        {
          "internalType": "bool",
          "name": "approved",
          "type": "bool"
        }
      ],
      "name": "setApprovalForAll",
      "outputs": [],
      "stateMutability": "nonpayable",
      "type": "function"
    },
    {
      "inputs": [
        {
          "internalType": "bytes4",
          "name": "interfaceId",
          "type": "bytes4"
        }
      ],
      "name": "supportsInterface",
      "outputs": [
        {
          "internalType": "bool",
          "name": "",
          "type": "bool"
        }
      ],
      "stateMutability": "view",
      "type": "function",
      "constant": true
    },
    {
      "inputs": [],
      "name": "symbol",
      "outputs": [
        {
          "internalType": "string",
          "name": "",
          "type": "string"
        }
      ],
      "stateMutability": "view",
      "type": "function",
      "constant": true
    },
    {
      "inputs": [
        {
          "internalType": "address",
          "name": "from",
          "type": "address"
        },
        {
          "internalType": "address",
          "name": "to",
          "type": "address"
        },
        {
          "internalType": "uint256",
          "name": "tokenId",
          "type": "uint256"
        }
      ],
      "name": "transferFrom",
      "outputs": [],
      "stateMutability": "nonpayable",
      "type": "function"
    },
    {
      "inputs": [
        {
          "internalType": "address",
          "name": "newOwner",
          "type": "address"
        }
      ],
      "name": "transferOwnership",
      "outputs": [],
      "stateMutability": "nonpayable",
      "type": "function"
    },
    {
      "inputs": [],
      "name": "trustedForwarder",
      "outputs": [
        {
          "internalType": "address",
          "name": "",
          "type": "address"
        }
      ],
      "stateMutability": "view",
      "type": "function",
      "constant": true
    },
    {
      "inputs": [],
      "name": "versionRecipient",
      "outputs": [
        {
          "internalType": "string",
          "name": "",
          "type": "string"
        }
      ],
      "stateMutability": "view",
      "type": "function",
      "constant": true
    },
    {
      "inputs": [
        {
          "internalType": "address",
          "name": "_forwarder",
          "type": "address"
        }
      ],
      "name": "setTrustedForwarder",
      "outputs": [],
      "stateMutability": "nonpayable",
      "type": "function"
    },
    {
      "inputs": [
        {
          "internalType": "address",
          "name": "_newAdmin",
          "type": "address"
        }
      ],
      "name": "addAdmin",
      "outputs": [],
      "stateMutability": "nonpayable",
      "type": "function"
    },
    {
      "inputs": [
        {
          "internalType": "address",
          "name": "_newAdmin",
          "type": "address"
        }
      ],
      "name": "removeAdmin",
      "outputs": [],
      "stateMutability": "nonpayable",
      "type": "function"
    },
    {
      "inputs": [
        {
          "internalType": "string",
          "name": "baseURI_",
          "type": "string"
        }
      ],
      "name": "setBaseURI",
      "outputs": [],
      "stateMutability": "nonpayable",
      "type": "function"
    },
    {
      "inputs": [
        {
          "internalType": "string",
          "name": "_defURI",
          "type": "string"
        }
      ],
      "name": "setDefaultURI",
      "outputs": [],
      "stateMutability": "nonpayable",
      "type": "function"
    },
    {
      "inputs": [
        {
          "internalType": "uint256",
          "name": "tokenId",
          "type": "uint256"
        },
        {
          "internalType": "string",
          "name": "_tokenURI",
          "type": "string"
        }
      ],
      "name": "_setTokenURIAdmin",
      "outputs": [],
      "stateMutability": "nonpayable",
      "type": "function"
    },
    {
      "inputs": [
        {
          "internalType": "uint256",
          "name": "tokenId",
          "type": "uint256"
        }
      ],
      "name": "tokenURI",
      "outputs": [
        {
          "internalType": "string",
          "name": "",
          "type": "string"
        }
      ],
      "stateMutability": "view",
      "type": "function",
      "constant": true
    },
    {
      "inputs": [],
      "name": "getNumNFTs",
      "outputs": [
        {
          "internalType": "uint256",
          "name": "n",
          "type": "uint256"
        }
      ],
      "stateMutability": "view",
      "type": "function",
      "constant": true
    },
    {
      "inputs": [],
      "name": "getNumOwnedNFTs",
      "outputs": [
        {
          "internalType": "uint256",
          "name": "",
          "type": "uint256"
        }
      ],
      "stateMutability": "view",
      "type": "function",
      "constant": true
    },
    {
      "inputs": [],
      "name": "getOwnedNFTs",
      "outputs": [
        {
          "internalType": "uint256[]",
          "name": "",
          "type": "uint256[]"
        }
      ],
      "stateMutability": "view",
      "type": "function",
      "constant": true
    },
    {
      "inputs": [
        {
          "internalType": "uint256",
          "name": "numMint",
          "type": "uint256"
        }
      ],
      "name": "mint",
      "outputs": [],
      "stateMutability": "payable",
      "type": "function",
      "payable": true
    },
    {
      "inputs": [
        {
          "internalType": "uint256",
          "name": "tokenId",
          "type": "uint256"
        }
      ],
      "name": "burn",
      "outputs": [],
      "stateMutability": "nonpayable",
      "type": "function"
    },
    {
      "inputs": [
        {
          "internalType": "uint256[]",
          "name": "_bridgeTokenIds",
          "type": "uint256[]"
        }
      ],
      "name": "bridge",
      "outputs": [],
      "stateMutability": "nonpayable",
      "type": "function"
    }
  ],
  "bytecode": "0x60806040526040518060400160405280600581526020017f322e322e30000000000000000000000000000000000000000000000000000000815250600d908051906020019062000051929190620003f0565b503480156200005f57600080fd5b5060405162004b4f38038062004b4f8339818101604052810190620000859190620006a2565b6040518060400160405280601981526020017f566972696469616e203173742045646974696f6e2050617373000000000000008152506040518060400160405280600481526020017f5631455000000000000000000000000000000000000000000000000000000000815250816000908051906020019062000109929190620003f0565b50806001908051906020019062000122929190620003f0565b50505062000145620001396200022e60201b60201c565b6200024a60201b60201c565b62000156816200031060201b60201c565b620001666200022e60201b60201c565b600b60006101000a81548173ffffffffffffffffffffffffffffffffffffffff021916908373ffffffffffffffffffffffffffffffffffffffff1602179055506001600a6000620001bc6200022e60201b60201c565b73ffffffffffffffffffffffffffffffffffffffff1673ffffffffffffffffffffffffffffffffffffffff16815260200190815260200160002060006101000a81548160ff02191690831515021790555081600c908051906020019062000225929190620003f0565b5050506200076d565b6000620002456200035460201b62001bfe1760201c565b905090565b6000600660009054906101000a900473ffffffffffffffffffffffffffffffffffffffff16905081600660006101000a81548173ffffffffffffffffffffffffffffffffffffffff021916908373ffffffffffffffffffffffffffffffffffffffff1602179055508173ffffffffffffffffffffffffffffffffffffffff168173ffffffffffffffffffffffffffffffffffffffff167f8be0079c531659141344cd1fd0a4f28419497f9722a3daafe3b4186f6b6457e060405160405180910390a35050565b80600760006101000a81548173ffffffffffffffffffffffffffffffffffffffff021916908373ffffffffffffffffffffffffffffffffffffffff16021790555050565b6000601460003690501015801562000379575062000378336200039660201b60201c565b5b156200038f57601436033560601c905062000393565b3390505b90565b6000600760009054906101000a900473ffffffffffffffffffffffffffffffffffffffff1673ffffffffffffffffffffffffffffffffffffffff168273ffffffffffffffffffffffffffffffffffffffff16149050919050565b828054620003fe9062000737565b90600052602060002090601f0160209004810192826200042257600085556200046e565b82601f106200043d57805160ff19168380011785556200046e565b828001600101855582156200046e579182015b828111156200046d57825182559160200191906001019062000450565b5b5090506200047d919062000481565b5090565b5b808211156200049c57600081600090555060010162000482565b5090565b6000604051905090565b600080fd5b600080fd5b600080fd5b600080fd5b6000601f19601f8301169050919050565b7f4e487b7100000000000000000000000000000000000000000000000000000000600052604160045260246000fd5b6200050982620004be565b810181811067ffffffffffffffff821117156200052b576200052a620004cf565b5b80604052505050565b600062000540620004a0565b90506200054e8282620004fe565b919050565b600067ffffffffffffffff821115620005715762000570620004cf565b5b6200057c82620004be565b9050602081019050919050565b60005b83811015620005a95780820151818401526020810190506200058c565b83811115620005b9576000848401525b50505050565b6000620005d6620005d08462000553565b62000534565b905082815260208101848484011115620005f557620005f4620004b9565b5b6200060284828562000589565b509392505050565b600082601f830112620006225762000621620004b4565b5b815162000634848260208601620005bf565b91505092915050565b600073ffffffffffffffffffffffffffffffffffffffff82169050919050565b60006200066a826200063d565b9050919050565b6200067c816200065d565b81146200068857600080fd5b50565b6000815190506200069c8162000671565b92915050565b60008060408385031215620006bc57620006bb620004aa565b5b600083015167ffffffffffffffff811115620006dd57620006dc620004af565b5b620006eb858286016200060a565b9250506020620006fe858286016200068b565b9150509250929050565b7f4e487b7100000000000000000000000000000000000000000000000000000000600052602260045260246000fd5b600060028204905060018216806200075057607f821691505b6020821081141562000767576200076662000708565b5b50919050565b6143d2806200077d6000396000f3fe6080604052600436106101d85760003560e01c806370a0823111610102578063bb92c24811610095578063da74222811610064578063da74222814610699578063e985e9c5146106c2578063f2fde38b146106ff578063fc8aa3fc14610728576101d8565b8063bb92c248146105dd578063bda4e79714610608578063c87b56dd14610633578063da1b9e0814610670576101d8565b806395d89b41116100d157806395d89b4114610544578063a0712d681461056f578063a22cb4651461058b578063b88d4fde146105b4576101d8565b806370a082311461049a578063715018a6146104d75780637da0a877146104ee5780638da5cb5b14610519576101d8565b806342842e0e1161017a57806355f804b31161014957806355f804b3146103ce578063572b6c05146103f75780636352211e146104345780637048027514610471576101d8565b806342842e0e1461032657806342966c681461034f578063486ff0cd146103785780634c0eb7d9146103a3576101d8565b8063081812fc116101b6578063081812fc1461026e578063095ea7b3146102ab5780631785f53c146102d457806323b872dd146102fd576101d8565b806301ffc9a7146101dd57806306e9f54a1461021a57806306fdde0314610243575b600080fd5b3480156101e957600080fd5b5061020460048036038101906101ff9190612bcc565b610751565b6040516102119190612c14565b60405180910390f35b34801561022657600080fd5b50610241600480360381019061023c9190612dab565b610833565b005b34801561024f57600080fd5b506102586108a5565b6040516102659190612e8f565b60405180910390f35b34801561027a57600080fd5b5061029560048036038101906102909190612eb1565b610937565b6040516102a29190612f1f565b60405180910390f35b3480156102b757600080fd5b506102d260048036038101906102cd9190612f66565b6109bc565b005b3480156102e057600080fd5b506102fb60048036038101906102f69190612fa6565b610ad4565b005b34801561030957600080fd5b50610324600480360381019061031f9190612fd3565b610bab565b005b34801561033257600080fd5b5061034d60048036038101906103489190612fd3565b610c0b565b005b34801561035b57600080fd5b5061037660048036038101906103719190612eb1565b610c2b565b005b34801561038457600080fd5b5061038d610c51565b60405161039a9190612e8f565b60405180910390f35b3480156103af57600080fd5b506103b8610cdf565b6040516103c591906130e4565b60405180910390f35b3480156103da57600080fd5b506103f560048036038101906103f09190613106565b610dea565b005b34801561040357600080fd5b5061041e60048036038101906104199190612fa6565b610e68565b60405161042b9190612c14565b60405180910390f35b34801561044057600080fd5b5061045b60048036038101906104569190612eb1565b610ec2565b6040516104689190612f1f565b60405180910390f35b34801561047d57600080fd5b5061049860048036038101906104939190612fa6565b610f74565b005b3480156104a657600080fd5b506104c160048036038101906104bc9190612fa6565b61104b565b6040516104ce919061315e565b60405180910390f35b3480156104e357600080fd5b506104ec611103565b005b3480156104fa57600080fd5b5061050361118b565b6040516105109190612f1f565b60405180910390f35b34801561052557600080fd5b5061052e6111b5565b60405161053b9190612f1f565b60405180910390f35b34801561055057600080fd5b506105596111df565b6040516105669190612e8f565b60405180910390f35b61058960048036038101906105849190612eb1565b611271565b005b34801561059757600080fd5b506105b260048036038101906105ad91906131a5565b6114f1565b005b3480156105c057600080fd5b506105db60048036038101906105d69190613286565b611672565b005b3480156105e957600080fd5b506105f26116d4565b6040516105ff919061315e565b60405180910390f35b34801561061457600080fd5b5061061d61176e565b60405161062a919061315e565b60405180910390f35b34801561063f57600080fd5b5061065a60048036038101906106559190612eb1565b61177f565b6040516106679190612e8f565b60405180910390f35b34801561067c57600080fd5b5061069760048036038101906106929190613106565b6118f2565b005b3480156106a557600080fd5b506106c060048036038101906106bb9190612fa6565b611970565b005b3480156106ce57600080fd5b506106e960048036038101906106e49190613309565b6119f8565b6040516106f69190612c14565b60405180910390f35b34801561070b57600080fd5b5061072660048036038101906107219190612fa6565b611a8c565b005b34801561073457600080fd5b5061074f600480360381019061074a9190613411565b611b84565b005b60007f80ac58cd000000000000000000000000000000000000000000000000000000007bffffffffffffffffffffffffffffffffffffffffffffffffffffffff1916827bffffffffffffffffffffffffffffffffffffffffffffffffffffffff1916148061081c57507f5b5e139f000000000000000000000000000000000000000000000000000000007bffffffffffffffffffffffffffffffffffffffffffffffffffffffff1916827bffffffffffffffffffffffffffffffffffffffffffffffffffffffff1916145b8061082c575061082b82611c35565b5b9050919050565b60011515600a6000610843611c9f565b73ffffffffffffffffffffffffffffffffffffffff1673ffffffffffffffffffffffffffffffffffffffff16815260200190815260200160002060009054906101000a900460ff1615151461089757600080fd5b6108a18282611cae565b5050565b6060600080546108b490613489565b80601f01602080910402602001604051908101604052809291908181526020018280546108e090613489565b801561092d5780601f106109025761010080835404028352916020019161092d565b820191906000526020600020905b81548152906001019060200180831161091057829003601f168201915b5050505050905090565b600061094282611d72565b610981576040517f08c379a00000000000000000000000000000000000000000000000000000000081526004016109789061352d565b60405180910390fd5b6004600083815260200190815260200160002060009054906101000a900473ffffffffffffffffffffffffffffffffffffffff169050919050565b60006109c782610ec2565b90508073ffffffffffffffffffffffffffffffffffffffff168373ffffffffffffffffffffffffffffffffffffffff161415610a38576040517f08c379a0000000000000000000000000000000000000000000000000000000008152600401610a2f906135bf565b60405180910390fd5b8073ffffffffffffffffffffffffffffffffffffffff16610a57611c9f565b73ffffffffffffffffffffffffffffffffffffffff161480610a865750610a8581610a80611c9f565b6119f8565b5b610ac5576040517f08c379a0000000000000000000000000000000000000000000000000000000008152600401610abc90613651565b60405180910390fd5b610acf8383611dde565b505050565b610adc611c9f565b73ffffffffffffffffffffffffffffffffffffffff16610afa6111b5565b73ffffffffffffffffffffffffffffffffffffffff1614610b50576040517f08c379a0000000000000000000000000000000000000000000000000000000008152600401610b47906136bd565b60405180910390fd5b6000600a60008373ffffffffffffffffffffffffffffffffffffffff1673ffffffffffffffffffffffffffffffffffffffff16815260200190815260200160002060006101000a81548160ff02191690831515021790555050565b610bbc610bb6611c9f565b82611e97565b610bfb576040517f08c379a0000000000000000000000000000000000000000000000000000000008152600401610bf29061374f565b60405180910390fd5b610c06838383611f0e565b505050565b610c2683838360405180602001604052806000815250611672565b505050565b610c3c610c36611c9f565b82611e97565b610c4557600080fd5b610c4e8161216a565b50565b600d8054610c5e90613489565b80601f0160208091040260200160405190810160405280929190818152602001828054610c8a90613489565b8015610cd75780601f10610cac57610100808354040283529160200191610cd7565b820191906000526020600020905b815481529060010190602001808311610cba57829003601f168201915b505050505081565b60606000610ceb6116d4565b67ffffffffffffffff811115610d0457610d03612c80565b5b604051908082528060200260200182016040528015610d325781602001602082028036833780820191505090505b509050600080600190505b610d47600861227b565b8111610de157610d5681611d72565b15610dce57610d63611c9f565b73ffffffffffffffffffffffffffffffffffffffff16610d8282610ec2565b73ffffffffffffffffffffffffffffffffffffffff161415610dcd5780838381518110610db257610db161376f565b5b6020026020010181815250508180610dc9906137cd565b9250505b5b8080610dd9906137cd565b915050610d3d565b50819250505090565b60011515600a6000610dfa611c9f565b73ffffffffffffffffffffffffffffffffffffffff1673ffffffffffffffffffffffffffffffffffffffff16815260200190815260200160002060009054906101000a900460ff16151514610e4e57600080fd5b80600f9080519060200190610e64929190612abd565b5050565b6000600760009054906101000a900473ffffffffffffffffffffffffffffffffffffffff1673ffffffffffffffffffffffffffffffffffffffff168273ffffffffffffffffffffffffffffffffffffffff16149050919050565b6000806002600084815260200190815260200160002060009054906101000a900473ffffffffffffffffffffffffffffffffffffffff169050600073ffffffffffffffffffffffffffffffffffffffff168173ffffffffffffffffffffffffffffffffffffffff161415610f6b576040517f08c379a0000000000000000000000000000000000000000000000000000000008152600401610f6290613888565b60405180910390fd5b80915050919050565b610f7c611c9f565b73ffffffffffffffffffffffffffffffffffffffff16610f9a6111b5565b73ffffffffffffffffffffffffffffffffffffffff1614610ff0576040517f08c379a0000000000000000000000000000000000000000000000000000000008152600401610fe7906136bd565b60405180910390fd5b6001600a60008373ffffffffffffffffffffffffffffffffffffffff1673ffffffffffffffffffffffffffffffffffffffff16815260200190815260200160002060006101000a81548160ff02191690831515021790555050565b60008073ffffffffffffffffffffffffffffffffffffffff168273ffffffffffffffffffffffffffffffffffffffff1614156110bc576040517f08c379a00000000000000000000000000000000000000000000000000000000081526004016110b39061391a565b60405180910390fd5b600360008373ffffffffffffffffffffffffffffffffffffffff1673ffffffffffffffffffffffffffffffffffffffff168152602001908152602001600020549050919050565b61110b611c9f565b73ffffffffffffffffffffffffffffffffffffffff166111296111b5565b73ffffffffffffffffffffffffffffffffffffffff161461117f576040517f08c379a0000000000000000000000000000000000000000000000000000000008152600401611176906136bd565b60405180910390fd5b6111896000612289565b565b6000600760009054906101000a900473ffffffffffffffffffffffffffffffffffffffff16905090565b6000600660009054906101000a900473ffffffffffffffffffffffffffffffffffffffff16905090565b6060600180546111ee90613489565b80601f016020809104026020016040519081016040528092919081815260200182805461121a90613489565b80156112675780601f1061123c57610100808354040283529160200191611267565b820191906000526020600020905b81548152906001019060200180831161124a57829003601f168201915b5050505050905090565b60008114156112b5576040517f08c379a00000000000000000000000000000000000000000000000000000000081526004016112ac90613986565b60405180910390fd5b3481670de0b6b3a76400006112ca91906139a6565b1461130a576040517f08c379a000000000000000000000000000000000000000000000000000000000815260040161130190613a72565b60405180910390fd5b600b60009054906101000a900473ffffffffffffffffffffffffffffffffffffffff1673ffffffffffffffffffffffffffffffffffffffff166108fc349081150290604051600060405180830381858888f19350505050158015611372573d6000803e3d6000fd5b5061018c81611381600861227b565b61138b9190613a92565b11156113cc576040517f08c379a00000000000000000000000000000000000000000000000000000000081526004016113c390613b34565b60405180910390fd5b60005b818110156114ed576113e1600861234f565b60006113ed600861227b565b905061018c811115611434576040517f08c379a000000000000000000000000000000000000000000000000000000000815260040161142b90613ba0565b60405180910390fd5b61144561143f611c9f565b82612365565b6114d981600c805461145690613489565b80601f016020809104026020016040519081016040528092919081815260200182805461148290613489565b80156114cf5780601f106114a4576101008083540402835291602001916114cf565b820191906000526020600020905b8154815290600101906020018083116114b257829003601f168201915b5050505050611cae565b5080806114e5906137cd565b9150506113cf565b5050565b6114f9611c9f565b73ffffffffffffffffffffffffffffffffffffffff168273ffffffffffffffffffffffffffffffffffffffff161415611567576040517f08c379a000000000000000000000000000000000000000000000000000000000815260040161155e90613c0c565b60405180910390fd5b8060056000611574611c9f565b73ffffffffffffffffffffffffffffffffffffffff1673ffffffffffffffffffffffffffffffffffffffff16815260200190815260200160002060008473ffffffffffffffffffffffffffffffffffffffff1673ffffffffffffffffffffffffffffffffffffffff16815260200190815260200160002060006101000a81548160ff0219169083151502179055508173ffffffffffffffffffffffffffffffffffffffff16611621611c9f565b73ffffffffffffffffffffffffffffffffffffffff167f17307eab39ab6107e8899845ad3d59bd9653f200f220920489ca2b5937696c31836040516116669190612c14565b60405180910390a35050565b61168361167d611c9f565b83611e97565b6116c2576040517f08c379a00000000000000000000000000000000000000000000000000000000081526004016116b99061374f565b60405180910390fd5b6116ce84848484612383565b50505050565b600080600090506000600190505b6116ec600861227b565b8111611766576116fb81611d72565b1561175357611708611c9f565b73ffffffffffffffffffffffffffffffffffffffff1661172782610ec2565b73ffffffffffffffffffffffffffffffffffffffff16141561175257818061174e906137cd565b9250505b5b808061175e906137cd565b9150506116e2565b508091505090565b600061177a600861227b565b905090565b606061178a82611d72565b6117c9576040517f08c379a00000000000000000000000000000000000000000000000000000000081526004016117c090613c9e565b60405180910390fd5b6000600e600084815260200190815260200160002080546117e990613489565b80601f016020809104026020016040519081016040528092919081815260200182805461181590613489565b80156118625780601f1061183757610100808354040283529160200191611862565b820191906000526020600020905b81548152906001019060200180831161184557829003601f168201915b5050505050905060006118736123df565b90506000815114156118895781925050506118ed565b6000825111156118be5780826040516020016118a6929190613cfa565b604051602081830303815290604052925050506118ed565b806118c885612471565b6040516020016118d9929190613cfa565b604051602081830303815290604052925050505b919050565b60011515600a6000611902611c9f565b73ffffffffffffffffffffffffffffffffffffffff1673ffffffffffffffffffffffffffffffffffffffff16815260200190815260200160002060009054906101000a900460ff1615151461195657600080fd5b80600c908051906020019061196c929190612abd565b5050565b611978611c9f565b73ffffffffffffffffffffffffffffffffffffffff166119966111b5565b73ffffffffffffffffffffffffffffffffffffffff16146119ec576040517f08c379a00000000000000000000000000000000000000000000000000000000081526004016119e3906136bd565b60405180910390fd5b6119f5816125d2565b50565b6000600560008473ffffffffffffffffffffffffffffffffffffffff1673ffffffffffffffffffffffffffffffffffffffff16815260200190815260200160002060008373ffffffffffffffffffffffffffffffffffffffff1673ffffffffffffffffffffffffffffffffffffffff16815260200190815260200160002060009054906101000a900460ff16905092915050565b611a94611c9f565b73ffffffffffffffffffffffffffffffffffffffff16611ab26111b5565b73ffffffffffffffffffffffffffffffffffffffff1614611b08576040517f08c379a0000000000000000000000000000000000000000000000000000000008152600401611aff906136bd565b60405180910390fd5b600073ffffffffffffffffffffffffffffffffffffffff168173ffffffffffffffffffffffffffffffffffffffff161415611b78576040517f08c379a0000000000000000000000000000000000000000000000000000000008152600401611b6f90613d90565b60405180910390fd5b611b8181612289565b50565b60005b8151811015611bfa57611bbb611b9b611c9f565b838381518110611bae57611bad61376f565b5b6020026020010151611e97565b611bc457600080fd5b611be7828281518110611bda57611bd961376f565b5b602002602001015161216a565b8080611bf2906137cd565b915050611b87565b5050565b60006014600036905010158015611c1a5750611c1933610e68565b5b15611c2e57601436033560601c9050611c32565b3390505b90565b60007f01ffc9a7000000000000000000000000000000000000000000000000000000007bffffffffffffffffffffffffffffffffffffffffffffffffffffffff1916827bffffffffffffffffffffffffffffffffffffffffffffffffffffffff1916149050919050565b6000611ca9611bfe565b905090565b611cb782611d72565b611cf6576040517f08c379a0000000000000000000000000000000000000000000000000000000008152600401611ced90613e22565b60405180910390fd5b611d07611d01611c9f565b83611e97565b611d46576040517f08c379a0000000000000000000000000000000000000000000000000000000008152600401611d3d90613eb4565b60405180910390fd5b80600e60008481526020019081526020016000209080519060200190611d6d929190612abd565b505050565b60008073ffffffffffffffffffffffffffffffffffffffff166002600084815260200190815260200160002060009054906101000a900473ffffffffffffffffffffffffffffffffffffffff1673ffffffffffffffffffffffffffffffffffffffff1614159050919050565b816004600083815260200190815260200160002060006101000a81548173ffffffffffffffffffffffffffffffffffffffff021916908373ffffffffffffffffffffffffffffffffffffffff160217905550808273ffffffffffffffffffffffffffffffffffffffff16611e5183610ec2565b73ffffffffffffffffffffffffffffffffffffffff167f8c5be1e5ebec7d5bd14f71427d1e84f3dd0314c0f7b2291e5b200ac8c7c3b92560405160405180910390a45050565b6000600a6000611ea5611c9f565b73ffffffffffffffffffffffffffffffffffffffff1673ffffffffffffffffffffffffffffffffffffffff16815260200190815260200160002060009054906101000a900460ff1615611efb5760019050611f08565b611f058383612616565b90505b92915050565b8273ffffffffffffffffffffffffffffffffffffffff16611f2e82610ec2565b73ffffffffffffffffffffffffffffffffffffffff1614611f84576040517f08c379a0000000000000000000000000000000000000000000000000000000008152600401611f7b90613f46565b60405180910390fd5b600073ffffffffffffffffffffffffffffffffffffffff168273ffffffffffffffffffffffffffffffffffffffff161415611ff4576040517f08c379a0000000000000000000000000000000000000000000000000000000008152600401611feb90613fd8565b60405180910390fd5b611fff8383836126f4565b61200a600082611dde565b6001600360008573ffffffffffffffffffffffffffffffffffffffff1673ffffffffffffffffffffffffffffffffffffffff168152602001908152602001600020600082825461205a9190613ff8565b925050819055506001600360008473ffffffffffffffffffffffffffffffffffffffff1673ffffffffffffffffffffffffffffffffffffffff16815260200190815260200160002060008282546120b19190613a92565b92505081905550816002600083815260200190815260200160002060006101000a81548173ffffffffffffffffffffffffffffffffffffffff021916908373ffffffffffffffffffffffffffffffffffffffff160217905550808273ffffffffffffffffffffffffffffffffffffffff168473ffffffffffffffffffffffffffffffffffffffff167fddf252ad1be2c89b69c2b068fc378daa952ba7f163c4a11628f55a4df523b3ef60405160405180910390a4505050565b600061217582610ec2565b9050612183816000846126f4565b61218e600083611dde565b6001600360008373ffffffffffffffffffffffffffffffffffffffff1673ffffffffffffffffffffffffffffffffffffffff16815260200190815260200160002060008282546121de9190613ff8565b925050819055506002600083815260200190815260200160002060006101000a81549073ffffffffffffffffffffffffffffffffffffffff021916905581600073ffffffffffffffffffffffffffffffffffffffff168273ffffffffffffffffffffffffffffffffffffffff167fddf252ad1be2c89b69c2b068fc378daa952ba7f163c4a11628f55a4df523b3ef60405160405180910390a45050565b600081600001549050919050565b6000600660009054906101000a900473ffffffffffffffffffffffffffffffffffffffff16905081600660006101000a81548173ffffffffffffffffffffffffffffffffffffffff021916908373ffffffffffffffffffffffffffffffffffffffff1602179055508173ffffffffffffffffffffffffffffffffffffffff168173ffffffffffffffffffffffffffffffffffffffff167f8be0079c531659141344cd1fd0a4f28419497f9722a3daafe3b4186f6b6457e060405160405180910390a35050565b6001816000016000828254019250508190555050565b61237f8282604051806020016040528060008152506126f9565b5050565b61238e848484611f0e565b61239a84848484612754565b6123d9576040517f08c379a00000000000000000000000000000000000000000000000000000000081526004016123d09061409e565b60405180910390fd5b50505050565b6060600f80546123ee90613489565b80601f016020809104026020016040519081016040528092919081815260200182805461241a90613489565b80156124675780601f1061243c57610100808354040283529160200191612467565b820191906000526020600020905b81548152906001019060200180831161244a57829003601f168201915b5050505050905090565b606060008214156124b9576040518060400160405280600181526020017f300000000000000000000000000000000000000000000000000000000000000081525090506125cd565b600082905060005b600082146124eb5780806124d4906137cd565b915050600a826124e491906140ed565b91506124c1565b60008167ffffffffffffffff81111561250757612506612c80565b5b6040519080825280601f01601f1916602001820160405280156125395781602001600182028036833780820191505090505b5090505b600085146125c6576001826125529190613ff8565b9150600a85612561919061411e565b603061256d9190613a92565b60f81b8183815181106125835761258261376f565b5b60200101907effffffffffffffffffffffffffffffffffffffffffffffffffffffffffffff1916908160001a905350600a856125bf91906140ed565b945061253d565b8093505050505b919050565b80600760006101000a81548173ffffffffffffffffffffffffffffffffffffffff021916908373ffffffffffffffffffffffffffffffffffffffff16021790555050565b600061262182611d72565b612660576040517f08c379a0000000000000000000000000000000000000000000000000000000008152600401612657906141c1565b60405180910390fd5b600061266b83610ec2565b90508073ffffffffffffffffffffffffffffffffffffffff168473ffffffffffffffffffffffffffffffffffffffff1614806126da57508373ffffffffffffffffffffffffffffffffffffffff166126c284610937565b73ffffffffffffffffffffffffffffffffffffffff16145b806126eb57506126ea81856119f8565b5b91505092915050565b505050565b61270383836128dc565b6127106000848484612754565b61274f576040517f08c379a00000000000000000000000000000000000000000000000000000000081526004016127469061409e565b60405180910390fd5b505050565b60006127758473ffffffffffffffffffffffffffffffffffffffff16612aaa565b156128cf578373ffffffffffffffffffffffffffffffffffffffff1663150b7a0261279e611c9f565b8786866040518563ffffffff1660e01b81526004016127c09493929190614236565b6020604051808303816000875af19250505080156127fc57506040513d601f19601f820116820180604052508101906127f99190614297565b60015b61287f573d806000811461282c576040519150601f19603f3d011682016040523d82523d6000602084013e612831565b606091505b50600081511415612877576040517f08c379a000000000000000000000000000000000000000000000000000000000815260040161286e9061409e565b60405180910390fd5b805181602001fd5b63150b7a0260e01b7bffffffffffffffffffffffffffffffffffffffffffffffffffffffff1916817bffffffffffffffffffffffffffffffffffffffffffffffffffffffff1916149150506128d4565b600190505b949350505050565b600073ffffffffffffffffffffffffffffffffffffffff168273ffffffffffffffffffffffffffffffffffffffff16141561294c576040517f08c379a000000000000000000000000000000000000000000000000000000000815260040161294390614310565b60405180910390fd5b61295581611d72565b15612995576040517f08c379a000000000000000000000000000000000000000000000000000000000815260040161298c9061437c565b60405180910390fd5b6129a1600083836126f4565b6001600360008473ffffffffffffffffffffffffffffffffffffffff1673ffffffffffffffffffffffffffffffffffffffff16815260200190815260200160002060008282546129f19190613a92565b92505081905550816002600083815260200190815260200160002060006101000a81548173ffffffffffffffffffffffffffffffffffffffff021916908373ffffffffffffffffffffffffffffffffffffffff160217905550808273ffffffffffffffffffffffffffffffffffffffff16600073ffffffffffffffffffffffffffffffffffffffff167fddf252ad1be2c89b69c2b068fc378daa952ba7f163c4a11628f55a4df523b3ef60405160405180910390a45050565b600080823b905060008111915050919050565b828054612ac990613489565b90600052602060002090601f016020900481019282612aeb5760008555612b32565b82601f10612b0457805160ff1916838001178555612b32565b82800160010185558215612b32579182015b82811115612b31578251825591602001919060010190612b16565b5b509050612b3f9190612b43565b5090565b5b80821115612b5c576000816000905550600101612b44565b5090565b6000604051905090565b600080fd5b600080fd5b60007fffffffff0000000000000000000000000000000000000000000000000000000082169050919050565b612ba981612b74565b8114612bb457600080fd5b50565b600081359050612bc681612ba0565b92915050565b600060208284031215612be257612be1612b6a565b5b6000612bf084828501612bb7565b91505092915050565b60008115159050919050565b612c0e81612bf9565b82525050565b6000602082019050612c296000830184612c05565b92915050565b6000819050919050565b612c4281612c2f565b8114612c4d57600080fd5b50565b600081359050612c5f81612c39565b92915050565b600080fd5b600080fd5b6000601f19601f8301169050919050565b7f4e487b7100000000000000000000000000000000000000000000000000000000600052604160045260246000fd5b612cb882612c6f565b810181811067ffffffffffffffff82111715612cd757612cd6612c80565b5b80604052505050565b6000612cea612b60565b9050612cf68282612caf565b919050565b600067ffffffffffffffff821115612d1657612d15612c80565b5b612d1f82612c6f565b9050602081019050919050565b82818337600083830152505050565b6000612d4e612d4984612cfb565b612ce0565b905082815260208101848484011115612d6a57612d69612c6a565b5b612d75848285612d2c565b509392505050565b600082601f830112612d9257612d91612c65565b5b8135612da2848260208601612d3b565b91505092915050565b60008060408385031215612dc257612dc1612b6a565b5b6000612dd085828601612c50565b925050602083013567ffffffffffffffff811115612df157612df0612b6f565b5b612dfd85828601612d7d565b9150509250929050565b600081519050919050565b600082825260208201905092915050565b60005b83811015612e41578082015181840152602081019050612e26565b83811115612e50576000848401525b50505050565b6000612e6182612e07565b612e6b8185612e12565b9350612e7b818560208601612e23565b612e8481612c6f565b840191505092915050565b60006020820190508181036000830152612ea98184612e56565b905092915050565b600060208284031215612ec757612ec6612b6a565b5b6000612ed584828501612c50565b91505092915050565b600073ffffffffffffffffffffffffffffffffffffffff82169050919050565b6000612f0982612ede565b9050919050565b612f1981612efe565b82525050565b6000602082019050612f346000830184612f10565b92915050565b612f4381612efe565b8114612f4e57600080fd5b50565b600081359050612f6081612f3a565b92915050565b60008060408385031215612f7d57612f7c612b6a565b5b6000612f8b85828601612f51565b9250506020612f9c85828601612c50565b9150509250929050565b600060208284031215612fbc57612fbb612b6a565b5b6000612fca84828501612f51565b91505092915050565b600080600060608486031215612fec57612feb612b6a565b5b6000612ffa86828701612f51565b935050602061300b86828701612f51565b925050604061301c86828701612c50565b9150509250925092565b600081519050919050565b600082825260208201905092915050565b6000819050602082019050919050565b61305b81612c2f565b82525050565b600061306d8383613052565b60208301905092915050565b6000602082019050919050565b600061309182613026565b61309b8185613031565b93506130a683613042565b8060005b838110156130d75781516130be8882613061565b97506130c983613079565b9250506001810190506130aa565b5085935050505092915050565b600060208201905081810360008301526130fe8184613086565b905092915050565b60006020828403121561311c5761311b612b6a565b5b600082013567ffffffffffffffff81111561313a57613139612b6f565b5b61314684828501612d7d565b91505092915050565b61315881612c2f565b82525050565b6000602082019050613173600083018461314f565b92915050565b61318281612bf9565b811461318d57600080fd5b50565b60008135905061319f81613179565b92915050565b600080604083850312156131bc576131bb612b6a565b5b60006131ca85828601612f51565b92505060206131db85828601613190565b9150509250929050565b600067ffffffffffffffff821115613200576131ff612c80565b5b61320982612c6f565b9050602081019050919050565b6000613229613224846131e5565b612ce0565b90508281526020810184848401111561324557613244612c6a565b5b613250848285612d2c565b509392505050565b600082601f83011261326d5761326c612c65565b5b813561327d848260208601613216565b91505092915050565b600080600080608085870312156132a05761329f612b6a565b5b60006132ae87828801612f51565b94505060206132bf87828801612f51565b93505060406132d087828801612c50565b925050606085013567ffffffffffffffff8111156132f1576132f0612b6f565b5b6132fd87828801613258565b91505092959194509250565b600080604083850312156133205761331f612b6a565b5b600061332e85828601612f51565b925050602061333f85828601612f51565b9150509250929050565b600067ffffffffffffffff82111561336457613363612c80565b5b602082029050602081019050919050565b600080fd5b600061338d61338884613349565b612ce0565b905080838252602082019050602084028301858111156133b0576133af613375565b5b835b818110156133d957806133c58882612c50565b8452602084019350506020810190506133b2565b5050509392505050565b600082601f8301126133f8576133f7612c65565b5b813561340884826020860161337a565b91505092915050565b60006020828403121561342757613426612b6a565b5b600082013567ffffffffffffffff81111561344557613444612b6f565b5b613451848285016133e3565b91505092915050565b7f4e487b7100000000000000000000000000000000000000000000000000000000600052602260045260246000fd5b600060028204905060018216806134a157607f821691505b602082108114156134b5576134b461345a565b5b50919050565b7f4552433732313a20617070726f76656420717565727920666f72206e6f6e657860008201527f697374656e7420746f6b656e0000000000000000000000000000000000000000602082015250565b6000613517602c83612e12565b9150613522826134bb565b604082019050919050565b600060208201905081810360008301526135468161350a565b9050919050565b7f4552433732313a20617070726f76616c20746f2063757272656e74206f776e6560008201527f7200000000000000000000000000000000000000000000000000000000000000602082015250565b60006135a9602183612e12565b91506135b48261354d565b604082019050919050565b600060208201905081810360008301526135d88161359c565b9050919050565b7f4552433732313a20617070726f76652063616c6c6572206973206e6f74206f7760008201527f6e6572206e6f7220617070726f76656420666f7220616c6c0000000000000000602082015250565b600061363b603883612e12565b9150613646826135df565b604082019050919050565b6000602082019050818103600083015261366a8161362e565b9050919050565b7f4f776e61626c653a2063616c6c6572206973206e6f7420746865206f776e6572600082015250565b60006136a7602083612e12565b91506136b282613671565b602082019050919050565b600060208201905081810360008301526136d68161369a565b9050919050565b7f4552433732313a207472616e736665722063616c6c6572206973206e6f74206f60008201527f776e6572206e6f7220617070726f766564000000000000000000000000000000602082015250565b6000613739603183612e12565b9150613744826136dd565b604082019050919050565b600060208201905081810360008301526137688161372c565b9050919050565b7f4e487b7100000000000000000000000000000000000000000000000000000000600052603260045260246000fd5b7f4e487b7100000000000000000000000000000000000000000000000000000000600052601160045260246000fd5b60006137d882612c2f565b91507fffffffffffffffffffffffffffffffffffffffffffffffffffffffffffffffff82141561380b5761380a61379e565b5b600182019050919050565b7f4552433732313a206f776e657220717565727920666f72206e6f6e657869737460008201527f656e7420746f6b656e0000000000000000000000000000000000000000000000602082015250565b6000613872602983612e12565b915061387d82613816565b604082019050919050565b600060208201905081810360008301526138a181613865565b9050919050565b7f4552433732313a2062616c616e636520717565727920666f7220746865207a6560008201527f726f206164647265737300000000000000000000000000000000000000000000602082015250565b6000613904602a83612e12565b915061390f826138a8565b604082019050919050565b60006020820190508181036000830152613933816138f7565b9050919050565b7f43616e6e6f74206d696e742030206e6674732e00000000000000000000000000600082015250565b6000613970601383612e12565b915061397b8261393a565b602082019050919050565b6000602082019050818103600083015261399f81613963565b9050919050565b60006139b182612c2f565b91506139bc83612c2f565b9250817fffffffffffffffffffffffffffffffffffffffffffffffffffffffffffffffff04831182151516156139f5576139f461379e565b5b828202905092915050565b7f4d7573742073656e6420636f727265637420616d6f756e74206f66204554482060008201527f746f20747265617375727920616464726573732e000000000000000000000000602082015250565b6000613a5c603483612e12565b9150613a6782613a00565b604082019050919050565b60006020820190508181036000830152613a8b81613a4f565b9050919050565b6000613a9d82612c2f565b9150613aa883612c2f565b9250827fffffffffffffffffffffffffffffffffffffffffffffffffffffffffffffffff03821115613add57613adc61379e565b5b828201905092915050565b7f4d696e74696e67206f766572207468652070617373206c696d69740000000000600082015250565b6000613b1e601b83612e12565b9150613b2982613ae8565b602082019050919050565b60006020820190508181036000830152613b4d81613b11565b9050919050565b7f416c6c207061737365732068617665206265656e206d696e7465642e00000000600082015250565b6000613b8a601c83612e12565b9150613b9582613b54565b602082019050919050565b60006020820190508181036000830152613bb981613b7d565b9050919050565b7f4552433732313a20617070726f766520746f2063616c6c657200000000000000600082015250565b6000613bf6601983612e12565b9150613c0182613bc0565b602082019050919050565b60006020820190508181036000830152613c2581613be9565b9050919050565b7f4552433732314d657461646174613a2055524920717565727920666f72206e6f60008201527f6e6578697374656e7420746f6b656e0000000000000000000000000000000000602082015250565b6000613c88602f83612e12565b9150613c9382613c2c565b604082019050919050565b60006020820190508181036000830152613cb781613c7b565b9050919050565b600081905092915050565b6000613cd482612e07565b613cde8185613cbe565b9350613cee818560208601612e23565b80840191505092915050565b6000613d068285613cc9565b9150613d128284613cc9565b91508190509392505050565b7f4f776e61626c653a206e6577206f776e657220697320746865207a65726f206160008201527f6464726573730000000000000000000000000000000000000000000000000000602082015250565b6000613d7a602683612e12565b9150613d8582613d1e565b604082019050919050565b60006020820190508181036000830152613da981613d6d565b9050919050565b7f4552433732314d657461646174613a2055524920736574206f66206e6f6e657860008201527f697374656e7420746f6b656e0000000000000000000000000000000000000000602082015250565b6000613e0c602c83612e12565b9150613e1782613db0565b604082019050919050565b60006020820190508181036000830152613e3b81613dff565b9050919050565b7f4d757374206265206f776e6572206f722061646d696e20746f206368616e676560008201527f20746f6b656e5552490000000000000000000000000000000000000000000000602082015250565b6000613e9e602983612e12565b9150613ea982613e42565b604082019050919050565b60006020820190508181036000830152613ecd81613e91565b9050919050565b7f4552433732313a207472616e73666572206f6620746f6b656e2074686174206960008201527f73206e6f74206f776e0000000000000000000000000000000000000000000000602082015250565b6000613f30602983612e12565b9150613f3b82613ed4565b604082019050919050565b60006020820190508181036000830152613f5f81613f23565b9050919050565b7f4552433732313a207472616e7366657220746f20746865207a65726f2061646460008201527f7265737300000000000000000000000000000000000000000000000000000000602082015250565b6000613fc2602483612e12565b9150613fcd82613f66565b604082019050919050565b60006020820190508181036000830152613ff181613fb5565b9050919050565b600061400382612c2f565b915061400e83612c2f565b9250828210156140215761402061379e565b5b828203905092915050565b7f4552433732313a207472616e7366657220746f206e6f6e20455243373231526560008201527f63656976657220696d706c656d656e7465720000000000000000000000000000602082015250565b6000614088603283612e12565b91506140938261402c565b604082019050919050565b600060208201905081810360008301526140b78161407b565b9050919050565b7f4e487b7100000000000000000000000000000000000000000000000000000000600052601260045260246000fd5b60006140f882612c2f565b915061410383612c2f565b925082614113576141126140be565b5b828204905092915050565b600061412982612c2f565b915061413483612c2f565b925082614144576141436140be565b5b828206905092915050565b7f4552433732313a206f70657261746f7220717565727920666f72206e6f6e657860008201527f697374656e7420746f6b656e0000000000000000000000000000000000000000602082015250565b60006141ab602c83612e12565b91506141b68261414f565b604082019050919050565b600060208201905081810360008301526141da8161419e565b9050919050565b600081519050919050565b600082825260208201905092915050565b6000614208826141e1565b61421281856141ec565b9350614222818560208601612e23565b61422b81612c6f565b840191505092915050565b600060808201905061424b6000830187612f10565b6142586020830186612f10565b614265604083018561314f565b818103606083015261427781846141fd565b905095945050505050565b60008151905061429181612ba0565b92915050565b6000602082840312156142ad576142ac612b6a565b5b60006142bb84828501614282565b91505092915050565b7f4552433732313a206d696e7420746f20746865207a65726f2061646472657373600082015250565b60006142fa602083612e12565b9150614305826142c4565b602082019050919050565b60006020820190508181036000830152614329816142ed565b9050919050565b7f4552433732313a20746f6b656e20616c7265616479206d696e74656400000000600082015250565b6000614366601c83612e12565b915061437182614330565b602082019050919050565b6000602082019050818103600083015261439581614359565b905091905056fea26469706673582212203a09dfb6c6f7b6f920d77f53a430216c2a7c10444dc23d4a096dd5b73696062364736f6c634300080b0033",
  "immutableReferences": {},
  "source": "pragma solidity ^0.8.0;\n\nimport \"@openzeppelin/contracts/token/ERC721/ERC721.sol\";\nimport \"@openzeppelin/contracts/utils/Counters.sol\";\nimport \"@openzeppelin/contracts/access/Ownable.sol\";\nimport \"@opengsn/contracts/src/BaseRelayRecipient.sol\";\n\ncontract ViridianPass is ERC721, Ownable, BaseRelayRecipient {\n\n    using Counters for Counters.Counter;\n    Counters.Counter private _tokenIds;\n    mapping(string => uint8) hashes;\n    \n    mapping(address => bool) admins;\n    address treasury;\n    string defaultURI;\n\n    constructor(string memory _defaultURI, address _forwarder) ERC721(\"Viridian 1st Edition Pass\", \"V1EP\") {\n        _setTrustedForwarder(_forwarder);\n        treasury = payable(_msgSender());\n        admins[_msgSender()] = true;\n        defaultURI = _defaultURI;\n    }\n\n    string public override versionRecipient = \"2.2.0\";\n\n    function setTrustedForwarder(address _forwarder) public onlyOwner() {\n        _setTrustedForwarder(_forwarder);\n    }\n\n    using Strings for uint256;\n\n\n    // Optional mapping for token URIs\n    mapping (uint256 => string) private _tokenURIs;\n\n    // Base URI\n    string private _baseURIextended;\n\n    modifier onlyAdmin() {\n        require(admins[_msgSender()] == true);\n            _;\n    }\n\n    function _isApprovedOrOwner(address spender, uint256 tokenId) internal view override returns (bool) {\n        if (admins[_msgSender()]) {\n            return true;\n        }\n\n        return super._isApprovedOrOwner(spender, tokenId);\n    }\n\n    function _msgSender() internal view override(Context, BaseRelayRecipient) returns (address sender) {\n        sender = BaseRelayRecipient._msgSender();\n    }\n\n    function _msgData() internal view override(Context, BaseRelayRecipient) returns (bytes memory) {\n        return BaseRelayRecipient._msgData();\n    }\n\n    function addAdmin(address _newAdmin) external onlyOwner() {\n        admins[_newAdmin] = true;\n    }\n\n    function removeAdmin(address _newAdmin) external onlyOwner() {\n        admins[_newAdmin] = false;\n    }\n    \n    function setBaseURI(string memory baseURI_) external onlyAdmin() {\n        _baseURIextended = baseURI_;\n    }\n\n    function setDefaultURI(string memory _defURI) public onlyAdmin() {\n        defaultURI = _defURI;\n    }\n    \n    function _setTokenURI(uint256 tokenId, string memory _tokenURI) private {\n        require(_exists(tokenId), \"ERC721Metadata: URI set of nonexistent token\");\n        require(_isApprovedOrOwner(_msgSender(), tokenId), \"Must be owner or admin to change tokenURI\");\n        _tokenURIs[tokenId] = _tokenURI;\n    }\n\n    function _setTokenURIAdmin(uint256 tokenId, string memory _tokenURI) public virtual onlyAdmin() {\n        _setTokenURI(tokenId, _tokenURI);\n    }\n    \n    function _baseURI() internal view virtual override returns (string memory) {\n        return _baseURIextended;\n    }\n    \n    function tokenURI(uint256 tokenId) public view virtual override returns (string memory) {\n        require(_exists(tokenId), \"ERC721Metadata: URI query for nonexistent token\");\n\n        string memory _tokenURI = _tokenURIs[tokenId];\n        string memory base = _baseURI();\n        \n        // If there is no base URI, return the token URI.\n        if (bytes(base).length == 0) {\n            return _tokenURI;\n        }\n        // If both are set, concatenate the baseURI and tokenURI (via abi.encodePacked).\n        if (bytes(_tokenURI).length > 0) {\n            return string(abi.encodePacked(base, _tokenURI));\n        }\n        // If there is a baseURI but no tokenURI, concatenate the tokenID to the baseURI.\n        return string(abi.encodePacked(base, tokenId.toString()));\n    }\n\n    function getNumNFTs() public view returns (uint256 n) {\n        return _tokenIds.current();\n    }\n\n    function getNumOwnedNFTs() public view virtual returns (uint256) {\n        uint256 numOwnedNFTs = 0;\n\n        for (uint256 i = 1; i <= _tokenIds.current(); i++) {\n            if (_exists(i)) {\n                if (ownerOf(i) == _msgSender()) {\n                    numOwnedNFTs++;\n                }\n            }\n        }\n\n        return numOwnedNFTs;\n    }\n \n    function getOwnedNFTs() public view virtual returns (uint256[] memory) {\n\n        uint256[] memory _tokens = new uint256[](getNumOwnedNFTs());\n\n        uint256 curIndex = 0;\n\n        for (uint256 i = 1; i <= _tokenIds.current(); i++) {\n            if (_exists(i)) {\n                if (ownerOf(i) == _msgSender()) {\n                    _tokens[curIndex] = i;\n                    curIndex++;\n                }\n            }\n        }\n        \n        return _tokens;\n    }\n\n    function mint(uint numMint) external payable {\n        require(numMint != 0, 'Cannot mint 0 nfts.');\n        require(1000000000000000000 * numMint == msg.value, \"Must send correct amount of ETH to treasury address.\");\n        (payable(treasury)).transfer(msg.value);\n        require(_tokenIds.current() + numMint <= 396, 'Minting over the pass limit');\n\n        for (uint i = 0; i < numMint; i++) {\n            _tokenIds.increment();\n            uint256 _tokenId = _tokenIds.current();\n            require(_tokenId <= 396, 'All passes have been minted.');\n\n            _safeMint(_msgSender(), _tokenId);\n            _setTokenURI(_tokenId, defaultURI);\n        }\n    }\n\n    function burn(uint256 tokenId) public {\n        require(_isApprovedOrOwner(_msgSender(), tokenId));\n\n        _burn(tokenId);\n    }\n\n    function bridge(uint256[] memory _bridgeTokenIds) public {\n        for (uint256 i = 0; i < _bridgeTokenIds.length; i++) {\n            require(_isApprovedOrOwner(_msgSender(), _bridgeTokenIds[i]));\n\n            _burn(_bridgeTokenIds[i]);\n        }\n    }\n}",
  "sourcePath": "/Users/blakehatch/Viridian-Exchange-Contracts/contracts/ViridianFirstEditionPass.sol",
  "compiler": {
    "name": "solc",
    "version": "0.8.11+commit.d7f03943.Emscripten.clang"
  },
  "schemaVersion": "3.4.1",
  "updatedAt": "2022-02-05T17:20:43.698Z",
  "networkType": "ethereum",
  "devdoc": {
    "kind": "dev",
    "methods": {
      "approve(address,uint256)": {
        "details": "See {IERC721-approve}."
      },
      "balanceOf(address)": {
        "details": "See {IERC721-balanceOf}."
      },
      "getApproved(uint256)": {
        "details": "See {IERC721-getApproved}."
      },
      "isApprovedForAll(address,address)": {
        "details": "See {IERC721-isApprovedForAll}."
      },
      "name()": {
        "details": "See {IERC721Metadata-name}."
      },
      "owner()": {
        "details": "Returns the address of the current owner."
      },
      "ownerOf(uint256)": {
        "details": "See {IERC721-ownerOf}."
      },
      "renounceOwnership()": {
        "details": "Leaves the contract without owner. It will not be possible to call `onlyOwner` functions anymore. Can only be called by the current owner. NOTE: Renouncing ownership will leave the contract without an owner, thereby removing any functionality that is only available to the owner."
      },
      "safeTransferFrom(address,address,uint256)": {
        "details": "See {IERC721-safeTransferFrom}."
      },
      "safeTransferFrom(address,address,uint256,bytes)": {
        "details": "See {IERC721-safeTransferFrom}."
      },
      "setApprovalForAll(address,bool)": {
        "details": "See {IERC721-setApprovalForAll}."
      },
      "supportsInterface(bytes4)": {
        "details": "See {IERC165-supportsInterface}."
      },
      "symbol()": {
        "details": "See {IERC721Metadata-symbol}."
      },
      "tokenURI(uint256)": {
        "details": "See {IERC721Metadata-tokenURI}."
      },
      "transferFrom(address,address,uint256)": {
        "details": "See {IERC721-transferFrom}."
      },
      "transferOwnership(address)": {
        "details": "Transfers ownership of the contract to a new account (`newOwner`). Can only be called by the current owner."
      }
    },
    "version": 1
  },
  "userdoc": {
    "kind": "user",
    "methods": {
      "isTrustedForwarder(address)": {
        "notice": "return if the forwarder is trusted to forward relayed transactions to us. the forwarder is required to verify the sender's signature, and verify the call is not a replay."
      }
    },
    "version": 1
  }
}